:02000000622874
:100008007E14803120007F08F100911D5B282400B8
:1000180014192E28941A1C282430F0007008F900AE
:100028001108F0007008F2002000A201A301552871
:1000380024001108F0007908860087017008810003
:100048000130F0007008F90701302000A2070030E5
:10005800A33D5528141C41282C30F0007008FA00E4
:100068001108F0007008F20014080139F000150EAC
:1000780001397004031D38284B28161B5928140809
:100088000139F000150E01397004031D43287A0860
:1000980086008701010891000130F0007008FA0716
:1000A80020009111240015165B28200091112000D2
:1000B800921992117108FF007E1009006328F90156
:1000C800FA0120308400003085001430C6217E10EB
:1000D8002000F7282000B5000130B400350A752843
:1000E800B435890B74283408FF3A22000C058C00BB
:1000F800EB2801302000B400350A8328B435890B79
:100108008228340821000C048C0001302000B4003F
:10011800350A8F28B435890B8E283408FF3A230016
:100128000C058C00080001302000B400350A9D2819
:10013800B435890B9C283408FF3A21000C058C0043
:1001480001302000B400350AAA28B435890BA92843
:100158003408FF3A23000C058C0008000130200009
:10016800B400350AB828B435890BB72834082100FB
:100178000C048C0001302000B400350AC428B435C2
:10018800890BC328340823000C048C00903021000C
:100198009E0020003508B4000230B435FF3E031D30
:1001A800D1283435013821009D0001302000B400E9
:1001B800350ADF28B435890BDE283408FF3A0C05E8
:1001C8008C000530F3000030F400A6210800780800
:1001D800013A03197D28023A0319B228073A03198C
:1001E8009728F62808002000B701B801CC21043070
:1001F8002000B6003608F80000306E20F801F80A32
:1002080004306E20F301003072210030F300F40056
:100218004E2102302000B6003608AC008F2173084A
:100228007404031912298B133E2920002435240055
:100238009200F301F30A0030722101302000B70068
:100248000030B8004C290430BA21003A031930298B
:100258002000AC01AC0A4C292000AC014C29FF302D
:10026800B6003608AC004C292408003A031927299F
:1002780033294C2920003808003A031944294C290D
:100288003708003A03191929013A031938294C2962
:100298008B171229803024009400263095001614FC
:1002A80073359200FE3093002100911592150B17BB
:1002B8008B17200091119211A201A301F930F500CA
:1002C800750823008C050630F500750821008C049C
:1002D800F930F500750820008C050800F500730852
:1002E800031982290130F400750A7B29F435890B3A
:1002F8007A29740822000C048C0008000130F400EC
:10030800750A8729F435890B86297408FF3A220073
:100318000C058C000800F501F601200022082304D2
:100328000319A1292400941D141EA12920002308C3
:10033800F6002208F500A201A3017608F40075086A
:10034800F3000800F601F7017708803AF500740811
:10035800803A7502031DB229730876020318080053
:1003680000320130F6070030F73DA829F4000130CB
:10037800F300740AC029F335890BBF2973082000DC
:100388000C050800640080010131890BC72900347D
:0C0398007230F300730821009904080083
:020000040001F9
:04000E0084CFFFDAC2
:00000001FF
