:02000000622874
:100008007E14803120007F08F100911D5B282400B8
:1000180014192E28941A1C282430F0007008F900AE
:100028001108F0007008F2002000A201A301552871
:1000380024001108F0007908860087017008810003
:100048000130F0007008F90701302000A2070030E5
:10005800A33D5528141C41282C30F0007008FA00E4
:100068001108F0007008F20014080139F000150EAC
:1000780001397004031D38284B28161B5928140809
:100088000139F000150E01397004031D43287A0860
:1000980086008701010891000130F0007008FA0716
:1000A80020009111240015165B28200091112000D2
:1000B800921992117108FF007E1009006328F90156
:1000C800FA0120308400003085001430A5217E100C
:1000D8002000F8282000B5000130B400350A752842
:1000E800B435890B74283408FF3A22000C058C00BB
:1000F800EC2801302000B400350A8328B435890B78
:100108008228340821000C048C0001302000B4003F
:10011800350A8F28B435890B8E283408FF3A230016
:100128000C058C00080001302000B400350A9D2819
:10013800B435890B9C283408FF3A21000C058C0043
:1001480001302000B400350AAA28B435890BA92843
:100158003408FF3A23000C058C0008000130200009
:10016800B400350AB828B435890BB72834082100FB
:100178000C048C0001302000B400350AC428B435C2
:10018800890BC328340823000C048C001330210089
:100198009E0020003508B4000230B435FF3E031D30
:1001A800D128343521001D0401389D00013020007C
:1001B800B400350AE028B435890BDF283408FF3A43
:1001C8000C058C000530F3000030F4009121080084
:1001D8007808013A03197D28023A0319B228073A28
:1001E80003199728F72808002000B701B801AB21A8
:1001F80004302000B6003608F80000306E20F30105
:1002080000305D210030F300F4003921FF30200078
:10021800B6003608AC007A217308740403190F2954
:100228008B1329292000243524009200F301F30AB6
:1002380000305D2101302000B7000030B8003729B8
:10024800FF30B6003608AC00372920003808003ADD
:1002580003192F2937293708003A03191629013AB3
:100268000319242937298B170F298030240094007B
:1002780026309500161473359200FE309300210045
:10028800911592150B178B17200091119211A2014D
:10029800A301F930F500750823008C050630F50038
:1002A800750821008C04F930F500750820008C05CC
:1002B8000800F500730803196D290130F400750A68
:1002C8006629F435890B6529740822000C048C0012
:1002D80008000130F400750A7229F435890B712978
:1002E8007408FF3A22000C058C000800F501F6019D
:1002F80020002208230403198C292400941D141EAD
:100308008C2920002308F6002208F500A201A30189
:100318007608F4007508F3000800F601F70177087D
:10032800803AF5007408803A7502031D9D29730808
:1003380076020318080000320130F6070030F73D56
:100348009329640080010131890BA6290034723099
:0A035800F300730821009904080067
:020000040001F9
:04000E0084CFFFDAC2
:00000001FF
