:02000000622874
:100008007E14803120007F08F100911D5B282400B8
:1000180014192E28941A1C282430F0007008F900AE
:100028001108F0007008F2002000A201A301552871
:1000380024001108F0007908860087017008810003
:100048000130F0007008F90701302000A2070030E5
:10005800A33D5528141C41282C30F0007008FA00E4
:100068001108F0007008F20014080139F000150EAC
:1000780001397004031D38284B28161B5928140809
:100088000139F000150E01397004031D43287A0860
:1000980086008701010891000130F0007008FA0716
:1000A80020009111240015165B28200091112000D2
:1000B800921992117108FF007E1009006328F90156
:1000C800FA0120308400003085001430E9217E10C8
:1000D8002000F7282000B5000130B400350A752843
:1000E800B435890B74283408FF3A22000C058C00BB
:1000F800EB2801302000B400350A8328B435890B79
:100108008228340821000C048C0001302000B4003F
:10011800350A8F28B435890B8E283408FF3A230016
:100128000C058C00080001302000B400350A9D2819
:10013800B435890B9C283408FF3A21000C058C0043
:1001480001302000B400350AAA28B435890BA92843
:100158003408FF3A23000C058C0008000130200009
:10016800B400350AB828B435890BB72834082100FB
:100178000C048C0001302000B400350AC428B435C2
:10018800890BC328340823000C048C00903021000C
:100198009E0020003508B4000130B435FF3E031D31
:1001A800D1283435013821009D0001302000B400E9
:1001B800350ADF28B435890BDE283408FF3A0C05E8
:1001C8008C000530F3000030F400D52108007808D1
:1001D800013A03197D28023A0319B228073A03198C
:1001E8009728F6280800FF302000BD00FF30BE0029
:1001F800BB01BC01EF2104302000BA003A08F80026
:1002080000306E2003302000BA003A08F8000330AE
:100218006E20F3010030A1210030F300F4005A21D0
:1002280003302000BA003A08AC00BE2173087404F9
:10023800031919298B134A29200024352400920018
:10024800F301F30A0030A12101302000BB00003087
:10025800BC0058297E2174082000BE007308BD0028
:1002680058293E083A293D083A29FF30BA003A0889
:10027800AC0058292408003A03192E29013A031919
:100288003529033A031937293929582920003C0808
:10029800003A0319502958293B08003A0319202924
:1002A800013A03193E2958298B171929803024004F
:1002B800940026309500161473359200FE30930092
:1002C8002100911592150B178B172000911192118F
:1002D800A201A301F930F500750823008C0506304A
:1002E800F500750821008C04F930F5007508200028
:1002F8008C05080021009D149D1880291C082000E9
:10030800B400B5013408F5003508F60021001B08D3
:100318002000B400B5017508B700B60134083604EA
:10032800B80035083704B9003808F5003908F60070
:100338007608F4007508F3000800F500730803193F
:10034800B1290130F400750AAA29F435890BA929C5
:10035800740822000C048C0008000130F400750AAF
:10036800B629F435890BB5297408FF3A22000C0523
:100378008C000800F501F601200022082304031967
:10038800D0292400941D141ED02920002308F6002B
:100398002208F500A201A3017608F4007508F3000D
:1003A8000800F601F7017708803AF5007408803AEA
:1003B8007502031DE129730876020318080000324C
:1003C8000130F6070030F73DD7296400800101317C
:1003D800890BEA2900347230F3007308210099046C
:0203E80008000B
:020000040001F9
:04000E0084CFFFDAC2
:00000001FF
