:02000000622874
:100008007E14803120007F08F100911D5B282400B8
:1000180014192E28941A1C282230F0007008F900B0
:100028001108F0007008F2002000A001A101552875
:1000380024001108F0007908860087017008810003
:100048000130F0007008F90701302000A0070030E7
:10005800A13D5528141C41282A30F0007008FA00E8
:100068001108F0007008F20014080139F000150EAC
:1000780001397004031D38284B28161B5928140809
:100088000139F000150E01397004031D43287A0860
:1000980086008701010891000130F0007008FA0716
:1000A80020009111240015165B28200091112000D2
:1000B800921992117108FF007E1009006328F90156
:1000C800FA0120308400003085001230E6217E10CD
:1000D8002000F8282000B3000130B200330A752848
:1000E800B235890B74283208FF3A22000C058C00BF
:1000F800EC2801302000B200330A8328B235890B7E
:100108008228320821000C048C0001302000B20043
:10011800330A8F28B235890B8E283208FF3A23001C
:100128000C058C00080001302000B200330A9D281D
:10013800B235890B9C283208FF3A21000C058C0047
:1001480001302000B200330AAA28B235890BA92849
:100158003208FF3A23000C058C000800013020000B
:10016800B200330AB828B235890BB7283208210003
:100178000C048C0001302000B200330AC428B235C8
:10018800890BC328320823000C048C00133021008B
:100198009E0020003308B2000230B235FF3E031D36
:1001A800D128323521001D0401389D00013020007E
:1001B800B200330AE028B235890BDF283208FF3A4B
:1001C8000C058C000530F3000030F400D221080043
:1001D8007808013A03197D28023A0319B228073A28
:1001E80003199728F72808002000B501B601EC216B
:1001F800F430F3000130F4009F2104302000B400F3
:100208003408F80000306E2004302000B4003408B0
:10021800F80004306E20F30100308221F30104302D
:1002280082210030F300F4005E212000AA01AA0A0E
:10023800BB217308740403191C298B134E29200051
:10024800223524009200F301F30A003082210130A4
:100258002000B5000030B6005C29FF30B400340837
:10026800AA004529F301043082215C29F301F30A2D
:10027800043082215C29FF302000B4003408AA0031
:100288005C292208003A03193629013A03193A2948
:100298003F295C2920003608003A031954295C29B3
:1002A8003508003A03192329013A031931295C2931
:1002B8008B171C29803024009400263095001614D2
:1002C80073359200FE3093002100911592150B179B
:1002D8008B17200091119211A001A101F930F500AE
:1002E800750823008C050630F500750821008C047C
:1002F800F930F500750820008C050800F500730832
:10030800031992290130F400750A8B29F435890BF9
:100318008A29740822000C048C0008000130F400BB
:10032800750A9729F435890B96297408FF3A220033
:100338000C058C000800F701F8017808803AF500F0
:100348007408803A7502031DAB29730877020318F5
:1003580008000330F6009730F500F50BB129F60BCD
:10036800B12900320130F7070030F83DA129F50125
:10037800F6012000200821040319CD292400941D2A
:10038800141ECD2920002108F6002008F500A00140
:10039800A1017608F4007508F3000800F601F701DA
:1003A8007708803AF5007408803A7502031DDE2943
:1003B800730876020318080000320130F60700308F
:1003C800F73DD429640080010131890BE729003405
:0C03D8007230F300730821009904080043
:020000040001F9
:04000E0084CFFFDAC2
:00000001FF
