:02000000622874
:100008007E14803120007F08F100911D5B282400B8
:1000180014192E28941A1C282230F0007008F900B0
:100028001108F0007008F2002000A001A101552875
:1000380024001108F0007908860087017008810003
:100048000130F0007008F90701302000A0070030E7
:10005800A13D5528141C41282A30F0007008FA00E8
:100068001108F0007008F20014080139F000150EAC
:1000780001397004031D38284B28161B5928140809
:100088000139F000150E01397004031D43287A0860
:1000980086008701010891000130F0007008FA0716
:1000A80020009111240015165B28200091112000D2
:1000B800921992117108FF007E1009006328F90156
:1000C800FA0120308400003085001230C5217E10EE
:1000D8002000F8282000B3000130B200330A752848
:1000E800B235890B74283208FF3A22000C058C00BF
:1000F800EC2801302000B200330A8328B235890B7E
:100108008228320821000C048C0001302000B20043
:10011800330A8F28B235890B8E283208FF3A23001C
:100128000C058C00080001302000B200330A9D281D
:10013800B235890B9C283208FF3A21000C058C0047
:1001480001302000B200330AAA28B235890BA92849
:100158003208FF3A23000C058C000800013020000B
:10016800B200330AB828B235890BB7283208210003
:100178000C048C0001302000B200330AC428B235C8
:10018800890BC328320823000C048C00133021008B
:100198009E0020003308B2000230B235FF3E031D36
:1001A800D128323521001D0401389D00013020007E
:1001B800B200330AE028B235890BDF283208FF3A4B
:1001C8000C058C000530F3000030F400B121080064
:1001D8007808013A03197D28023A0319B228073A28
:1001E80003199728F72808002000B501B601CB218C
:1001F80004302000B4003408F80000306E200430C9
:100208002000B4003408F80004306E20F3010030F8
:100218007D21F30104307D210030F300F4005921E1
:100228002000AA01AA0A9A2173087404031917293D
:100238008B1349292000223524009200F301F30A88
:1002480000307D2101302000B5000030B60057296C
:10025800FF30B4003408AA004029F30104307D219E
:100268005729F301F30A04307D215729FF30200074
:10027800B4003408AA0057292208003A0319312982
:10028800013A031935293A29572920003608003A36
:1002980003194F2957293508003A03191E29013A2D
:1002A80003192C2957298B1717298030240094000B
:1002B80026309500161473359200FE309300210005
:1002C800911592150B178B17200091119211A0010F
:1002D800A101F930F500750823008C050630F500FA
:1002E800750821008C04F930F500750820008C058C
:1002F8000800F500730803198D290130F400750A08
:100308008629F435890B8529740822000C048C0091
:1003180008000130F400750A9229F435890B9129F7
:100328007408FF3A22000C058C000800F501F6015C
:100338002000200821040319AC292400941D141E50
:10034800AC2920002108F6002008F500A001A10131
:100358007608F4007508F3000800F601F70177083D
:10036800803AF5007408803A7502031DBD297308A8
:1003780076020318080000320130F6070030F73D16
:10038800B329640080010131890BC6290034723019
:0A039800F300730821009904080027
:020000040001F9
:04000E0084CFFFDAC2
:00000001FF
