:02000000622874
:100008007E14803120007F08F100911D5B282400B8
:1000180014192E28941A1C282230F0007008F900B0
:100028001108F0007008F2002000A001A101552875
:1000380024001108F0007908860087017008810003
:100048000130F0007008F90701302000A0070030E7
:10005800A13D5528141C41282A30F0007008FA00E8
:100068001108F0007008F20014080139F000150EAC
:1000780001397004031D38284B28161B5928140809
:100088000139F000150E01397004031D43287A0860
:1000980086008701010891000130F0007008FA0716
:1000A80020009111240015165B28200091112000D2
:1000B800921992117108FF007E1009006328F90156
:1000C800FA0120308400003085001230FE217E10B5
:1000D8002000F7282000B3000130B200330A752849
:1000E800B235890B74283208FF3A22000C058C00BF
:1000F800EB2801302000B200330A8328B235890B7F
:100108008228320821000C048C0001302000B20043
:10011800330A8F28B235890B8E283208FF3A23001C
:100128000C058C00080001302000B200330A9D281D
:10013800B235890B9C283208FF3A21000C058C0047
:1001480001302000B200330AAA28B235890BA92849
:100158003208FF3A23000C058C000800013020000B
:10016800B200330AB828B235890BB7283208210003
:100178000C048C0001302000B200330AC428B235C8
:10018800890BC328320823000C048C00903021000E
:100198009E0020003308B2000130B235FF3E031D37
:1001A800D1283235013821009D0001302000B200ED
:1001B800330ADF28B235890BDE283208FF3A0C05EE
:1001C8008C000530F3000030F400DE2108007808C8
:1001D800013A03197D28023A0319B228073A03198C
:1001E8009728F62808002000BB01BC01042204302F
:1001F8002000B8003808F80000306E20F801F80A2E
:1002080005306E2003302000B8003808F8000330AD
:100218006E200030F300F400632102302000B800A3
:100228003808AA00C72173087404031916298B1308
:1002380053292000223524009200F301F30A0030EC
:10024800AA2101302000BB000030BC006129053024
:10025800F221003A031934292000AA01AA0A6129C7
:100268002000AA016129872173082000B8007408BA
:10027800B900B936B80CB936B80C3808BA003A081B
:100288004829FF30B8003808AA0061292208003A36
:1002980003192B29013A0319372945296129200017
:1002A8003C08003A0319592961293B08003A031907
:1002B8001D29013A03194A2961298B17162980300B
:1002C8002400940026309500161473359200FE30F1
:1002D80093002100911592150B178B17200091118F
:1002E8009211A001A101F930F500750823008C05D1
:1002F8000630F500750821008C04F930F500750802
:1003080020008C05080021009D149D1889291C08CF
:100318002000B200B3013208F5003308F6002100CE
:100328001B082000B200B3017508B500B4013208FB
:100338003404B60033083504B7003608F50037082A
:10034800F6007608F4007508F3000800F500730855
:100358000319BA290130F400750AB329F435890B59
:10036800B229740822000C048C0008000130F40043
:10037800750ABF29F435890BBE297408FF3A220093
:100388000C058C000800F501F60120002008210466
:100398000319D9292400941D141ED92920002108E5
:1003A800F6002008F500A001A1017608F400750800
:1003B800F3000800F601F7017708803AF5007408A1
:1003C800803A7502031DEA297308760203180800AB
:1003D80000320130F6070030F73DE029F400013023
:1003E800F300740AF829F335890BF72973082000FC
:1003F8000C050800640080010131890BFF290034D5
:0C0408007230F300730821009904080012
:020000040001F9
:04000E0084CFFFDAC2
:00000001FF
