:02000000622874
:100008007E14803120007F08F100911D5B282400B8
:1000180014192E28941A1C282430F0007008F900AE
:100028001108F0007008F2002000A201A301552871
:1000380024001108F0007908860087017008810003
:100048000130F0007008F90701302000A2070030E5
:10005800A33D5528141C41282C30F0007008FA00E4
:100068001108F0007008F20014080139F000150EAC
:1000780001397004031D38284B28161B5928140809
:100088000139F000150E01397004031D43287A0860
:1000980086008701010891000130F0007008FA0716
:1000A80020009111240015165B28200091112000D2
:1000B800921992117108FF007E1009006328F90156
:1000C800FA0120308400003085001430FE217E10B3
:1000D8002000F7282000B5000130B400350A752843
:1000E800B435890B74283408FF3A22000C058C00BB
:1000F800EB2801302000B400350A8328B435890B79
:100108008228340821000C048C0001302000B4003F
:10011800350A8F28B435890B8E283408FF3A230016
:100128000C058C00080001302000B400350A9D2819
:10013800B435890B9C283408FF3A21000C058C0043
:1001480001302000B400350AAA28B435890BA92843
:100158003408FF3A23000C058C0008000130200009
:10016800B400350AB828B435890BB72834082100FB
:100178000C048C0001302000B400350AC428B435C2
:10018800890BC328340823000C048C00903021000C
:100198009E0020003508B4000130B435FF3E031D31
:1001A800D1283435013821009D0001302000B400E9
:1001B800350ADF28B435890BDE283408FF3A0C05E8
:1001C8008C000530F3000030F400DE2108007808C8
:1001D800013A03197D28023A0319B228073A03198C
:1001E8009728F62808002000BD01BE01042204302B
:1001F8002000BA003A08F80000306E20F801F80A2A
:1002080004306E2003302000BA003A08F8000330AA
:100218006E200030F300F400632102302000BA00A1
:100228003A08AC00C72173087404031916298B1304
:1002380053292000243524009200F301F30A0030EA
:10024800AA2101302000BD000030BE006129043021
:10025800F221003A031934292000AC01AC0A6129C3
:100268002000AC016129872173082000BA007408B6
:10027800BB00BB36BA0CBB36BA0C3A08BC003C080B
:100288004829FF30BA003A08AC0061292408003A2E
:1002980003192B29013A0319372945296129200017
:1002A8003E08003A0319592961293D08003A031903
:1002B8001D29013A03194A2961298B17162980300B
:1002C8002400940026309500161473359200FE30F1
:1002D80093002100911592150B178B17200091118F
:1002E8009211A201A301F930F500750823008C05CD
:1002F8000630F500750821008C04F930F500750802
:1003080020008C05080021009D149D1889291C08CF
:100318002000B400B5013408F5003508F6002100C6
:100328001B082000B400B5017508B700B6013408F1
:100338003604B80035083704B9003808F50039081C
:10034800F6007608F4007508F3000800F500730855
:100358000319BA290130F400750AB329F435890B59
:10036800B229740822000C048C0008000130F40043
:10037800750ABF29F435890BBE297408FF3A220093
:100388000C058C000800F501F60120002208230462
:100398000319D9292400941D141ED92920002308E3
:1003A800F6002208F500A201A3017608F4007508FA
:1003B800F3000800F601F7017708803AF5007408A1
:1003C800803A7502031DEA297308760203180800AB
:1003D80000320130F6070030F73DE029F400013023
:1003E800F300740AF829F335890BF72973082000FC
:1003F8000C050800640080010131890BFF290034D5
:0C0408007230F300730821009904080012
:020000040001F9
:04000E0084CFFFDAC2
:00000001FF
