:02000000622874
:100008007E14803120007F08F100911D5B282400B8
:1000180014192E28941A1C282230F0007008F900B0
:100028001108F0007008F2002000A001A101552875
:1000380024001108F0007908860087017008810003
:100048000130F0007008F90701302000A0070030E7
:10005800A13D5528141C41282A30F0007008FA00E8
:100068001108F0007008F20014080139F000150EAC
:1000780001397004031D38284B28161B5928140809
:100088000139F000150E01397004031D43287A0860
:1000980086008701010891000130F0007008FA0716
:1000A80020009111240015165B28200091112000D2
:1000B800921992117108FF007E1009006328F90156
:1000C800FA0120308400003085001230C3217E10F0
:1000D8002000F7282000B3000130B200330A752849
:1000E800B235890B74283208FF3A22000C058C00BF
:1000F800EB2801302000B200330A8328B235890B7F
:100108008228320821000C048C0001302000B20043
:10011800330A8F28B235890B8E283208FF3A23001C
:100128000C058C00080001302000B200330A9D281D
:10013800B235890B9C283208FF3A21000C058C0047
:1001480001302000B200330AAA28B235890BA92849
:100158003208FF3A23000C058C000800013020000B
:10016800B200330AB828B235890BB7283208210003
:100178000C048C0001302000B200330AC428B235C8
:10018800890BC328320823000C048C00903021000E
:100198009E0020003308B2000130B235FF3E031D37
:1001A800D1283235013821009D0001302000B200ED
:1001B800330ADF28B235890BDE283208FF3A0C05EE
:1001C8008C000530F3000030F400A3210800780803
:1001D800013A03197D28023A0319B228073A03198C
:1001E8009728F62808002000B501B601C921043077
:1001F8002000B4003408F80000306E20F801F80A36
:1002080004306E200030F300F4004B21023020004F
:10021800B4003408AA008C217308740403190F2948
:100228008B133B292000223524009200F301F30AA6
:1002380000306F2101302000B5000030B600492998
:100248000430B721003A03192D292000AA01AA0A6F
:1002580049292000AA014929FF30B4003408AA001E
:1002680049292208003A031924293029492920005C
:100278003608003A0319412949293508003A031973
:100288001629013A0319352949298B170F29803076
:100298002400940026309500161473359200FE3021
:1002A80093002100911592150B178B1720009111BF
:1002B8009211A001A101F930F500750823008C0501
:1002C8000630F500750821008C04F930F500750832
:1002D80020008C050800F500730803197F290130F8
:1002E800F400750A7829F435890B772974082200F7
:1002F8000C048C0008000130F400750A8429F435D8
:10030800890B83297408FF3A22000C058C00080029
:10031800F501F60120002008210403199E29240074
:10032800941D141E9E2920002108F6002008F500BF
:10033800A001A1017608F4007508F3000800F60191
:10034800F7017708803AF5007408803A7502031DB2
:10035800AF29730876020318080000320130F60747
:100368000030F73DA529F4000130F300740ABD29D7
:10037800F335890BBC29730820000C0508006400BC
:1003880080010131890BC42900347230F3007308ED
:0603980021009904080099
:020000040001F9
:04000E0084CFFFDAC2
:00000001FF
